:100000000C9434000C9449000C9449000C94490061
:100010000C9449000C9449000C9449000C9449003C
:100020000C9449000C9449000C9449000C9449002C
:100030000C9449000C9449000C9449000C9449001C
:100040000C9449000C9449000C9449000C9449000C
:100050000C9449000C9449000C9449000C944900FC
:100060000C9449000C94490011241FBECFEFD8E036
:10007000DEBFCDBF11E0A0E0B1E0E6E2F1E002C0FA
:1000800005900D92A431B107D9F70E947E000C941F
:1000900091000C940000DF93CF93CDB7DEB7649747
:1000A0000FB6F894DEBF0FBECDBFDE011196E0E0C3
:1000B000F1E084E101900D928150E1F7DE011196AB
:1000C00048EC50E09E012B5E3F4F85B19C91892BFF
:1000D00085B988EE93E0FA013197F1F70197D9F7E6
:1000E00015B81296A217B30781F764960FB6F89465
:1000F000DEBF0FBECDBFCF91DF91089517B88FEF50
:1001000084B915B818B890E086B18D6F8F3F29F487
:1001100006C00E944B0091E0F7CF9923D1F315B8A8
:06012000F2CFF894FFCFBE
:100126003F0006005B004F0066006D007D00070083
:040136007F006F00D7
:00000001FF
